{
    "contractName": "Marketplace",
    "abi": [
        {
            "anonymous": false,
            "inputs": [
                {
                    "indexed": true,
                    "internalType": "address",
                    "name": "previousOwner",
                    "type": "address"
                },
                {
                    "indexed": true,
                    "internalType": "address",
                    "name": "newOwner",
                    "type": "address"
                }
            ],
            "name": "OwnershipTransferred",
            "type": "event"
        },
        {
            "anonymous": false,
            "inputs": [
                {
                    "indexed": false,
                    "internalType": "uint256",
                    "name": "tokenId",
                    "type": "uint256"
                },
                {
                    "indexed": false,
                    "internalType": "uint256",
                    "name": "value",
                    "type": "uint256"
                }
            ],
            "name": "RoyaltiesPaid",
            "type": "event"
        },
        {
            "anonymous": false,
            "inputs": [
                {
                    "indexed": false,
                    "internalType": "address",
                    "name": "tokenaddress",
                    "type": "address"
                },
                {
                    "indexed": false,
                    "internalType": "uint256",
                    "name": "tokenid",
                    "type": "uint256"
                },
                {
                    "indexed": false,
                    "internalType": "uint256",
                    "name": "priceinwei",
                    "type": "uint256"
                },
                {
                    "indexed": false,
                    "internalType": "address",
                    "name": "seller",
                    "type": "address"
                }
            ],
            "name": "listedforsale",
            "type": "event"
        },
        {
            "anonymous": false,
            "inputs": [
                {
                    "indexed": false,
                    "internalType": "address",
                    "name": "seller",
                    "type": "address"
                },
                {
                    "indexed": false,
                    "internalType": "address",
                    "name": "buyer",
                    "type": "address"
                },
                {
                    "indexed": false,
                    "internalType": "address",
                    "name": "tokenaddress",
                    "type": "address"
                },
                {
                    "indexed": false,
                    "internalType": "uint256",
                    "name": "tokenid",
                    "type": "uint256"
                },
                {
                    "indexed": false,
                    "internalType": "uint256",
                    "name": "price",
                    "type": "uint256"
                }
            ],
            "name": "listingsold",
            "type": "event"
        },
        {
            "anonymous": false,
            "inputs": [
                {
                    "indexed": false,
                    "internalType": "address",
                    "name": "offermadeby",
                    "type": "address"
                },
                {
                    "indexed": false,
                    "internalType": "address",
                    "name": "tokenaddress",
                    "type": "address"
                },
                {
                    "indexed": false,
                    "internalType": "uint256",
                    "name": "tokenid",
                    "type": "uint256"
                },
                {
                    "indexed": false,
                    "internalType": "uint256",
                    "name": "offerpriceinwei",
                    "type": "uint256"
                }
            ],
            "name": "offermade",
            "type": "event"
        },
        {
            "anonymous": false,
            "inputs": [
                {
                    "indexed": false,
                    "internalType": "address",
                    "name": "offerer",
                    "type": "address"
                },
                {
                    "indexed": false,
                    "internalType": "address",
                    "name": "tokenaddress",
                    "type": "address"
                },
                {
                    "indexed": false,
                    "internalType": "uint256",
                    "name": "tokenid",
                    "type": "uint256"
                },
                {
                    "indexed": false,
                    "internalType": "uint256",
                    "name": "priceaccepted",
                    "type": "uint256"
                }
            ],
            "name": "publicofferaccepted",
            "type": "event"
        },
        {
            "inputs": [
                {
                    "internalType": "uint256",
                    "name": "offerid",
                    "type": "uint256"
                },
                {
                    "internalType": "address",
                    "name": "tokenaddress",
                    "type": "address"
                },
                {
                    "internalType": "uint256",
                    "name": "tokenid",
                    "type": "uint256"
                }
            ],
            "name": "acceptpublicoffer",
            "outputs": [],
            "stateMutability": "payable",
            "type": "function"
        },
        {
            "inputs": [
                {
                    "internalType": "uint256",
                    "name": "_listingid",
                    "type": "uint256"
                }
            ],
            "name": "buyfromlisting",
            "outputs": [],
            "stateMutability": "payable",
            "type": "function"
        },
        {
            "inputs": [
                {
                    "internalType": "address",
                    "name": "_tokenaddress",
                    "type": "address"
                },
                {
                    "internalType": "uint256",
                    "name": "_tokenid",
                    "type": "uint256"
                },
                {
                    "internalType": "uint256",
                    "name": "_priceinwei",
                    "type": "uint256"
                }
            ],
            "name": "listforsale",
            "outputs": [
                {
                    "internalType": "bool",
                    "name": "",
                    "type": "bool"
                }
            ],
            "stateMutability": "payable",
            "type": "function"
        },
        {
            "inputs": [
                {
                    "internalType": "address",
                    "name": "tokenaddress",
                    "type": "address"
                },
                {
                    "internalType": "uint256",
                    "name": "tokenid",
                    "type": "uint256"
                },
                {
                    "internalType": "uint256",
                    "name": "offerpriceinwei",
                    "type": "uint256"
                }
            ],
            "name": "makeoffer",
            "outputs": [],
            "stateMutability": "payable",
            "type": "function"
        },
        {
            "inputs": [],
            "name": "orderCount",
            "outputs": [
                {
                    "internalType": "uint256",
                    "name": "",
                    "type": "uint256"
                }
            ],
            "stateMutability": "view",
            "type": "function"
        },
        {
            "inputs": [],
            "name": "owner",
            "outputs": [
                {
                    "internalType": "address",
                    "name": "",
                    "type": "address"
                }
            ],
            "stateMutability": "view",
            "type": "function"
        },
        {
            "inputs": [],
            "name": "renounceOwnership",
            "outputs": [],
            "stateMutability": "nonpayable",
            "type": "function"
        },
        {
            "inputs": [
                {
                    "internalType": "address",
                    "name": "newOwner",
                    "type": "address"
                }
            ],
            "name": "transferOwnership",
            "outputs": [],
            "stateMutability": "nonpayable",
            "type": "function"
        }
    ],
    "bytecode": "608060405234801561000f575f80fd5b506100193361001e565b61006d565b5f80546001600160a01b038381166001600160a01b0319831681178455604051919092169283917f8be0079c531659141344cd1fd0a4f28419497f9722a3daafe3b4186f6b6457e09190a35050565b610c5b8061007a5f395ff3fe608060405260043610610079575f3560e01c8063715018a61161004c578063715018a6146100e05780638da5cb5b146100f45780639aa331ba1461011a578063f2fde38b1461013d575f80fd5b80632453ffa81461007d5780632dd3a73c146100a5578063453ba330146100ba5780636a04200a146100cd575b5f80fd5b348015610088575f80fd5b5061009260015481565b6040519081526020015b60405180910390f35b6100b86100b3366004610ad9565b61015c565b005b6100b86100c8366004610b04565b610365565b6100b86100db366004610b36565b610471565b3480156100eb575f80fd5b506100b86106c4565b3480156100ff575f80fd5b505f546040516001600160a01b03909116815260200161009c565b61012d610128366004610b04565b6106d7565b604051901515815260200161009c565b348015610148575f80fd5b506100b8610157366004610b6b565b610823565b5f81815260026020526040902060038101543410156101e85760405162461bcd60e51b815260206004820152603860248201527f76616c75652073656e742073686f756c64206265206d6f7265207468616e206f60448201527f7220457175616c20746f206c697374696e67207072696365000000000000000060648201526084015b60405180910390fd5b60028101805460ff60a01b1916600160a01b17905580543490610213906001600160a01b031661089c565b1561023b576001820154600383015483546102389291906001600160a01b0316610914565b90505b60028201546040516001600160a01b039091169082905f81818185875af1925050503d805f8114610287576040519150601f19603f3d011682016040523d82523d5f602084013e61028c565b606091505b505082546001840154604051632142170760e11b815230600482015233602482015260448101919091526001600160a01b0390911691506342842e0e906064015f604051808303815f87803b1580156102e3575f80fd5b505af11580156102f5573d5f803e3d5ffd5b50505050600282015482546001840154604080516001600160a01b039485168152336020820152939092169183019190915260608201523460808201527fb9a0d01d350dc8599d3da10277d61c176d454dc052ecbe7fe11701983e9284c99060a0015b60405180910390a1505050565b803410156103a85760405162461bcd60e51b815260206004820152601060248201526f185b5bdd5b9d081b9bdd081c9a59da1d60821b60448201526064016101df565b6001600160a01b038381165f81815260036020908152604080832087845282528083208151606080820184523480835233838701818152848701898152865460018082018955978b529989902095516002909a029095019889555197909401805493511515600160a01b026001600160a81b0319909416979099169690961791909117909655815190815291820193909352918201859052918101919091527f405f00569b64fd457c52c13cfd914bba9a584f8544f3c6cc21e0ac1a96b3656790608001610358565b6040516331a9108f60e11b81526004810182905233906001600160a01b03841690636352211e90602401602060405180830381865afa1580156104b6573d5f803e3d5ffd5b505050506040513d601f19601f820116820180604052508101906104da9190610b86565b6001600160a01b03161461053c5760405162461bcd60e51b8152602060048201526024808201527f626520746865206f776e6572206f66206e667420746f20616363657074206f666044820152636665727360e01b60648201526084016101df565b6001600160a01b0382165f908152600360209081526040808320848452909152812080548590811061057057610570610ba1565b5f9182526020909120600290910201805460018201805460ff60a01b1916600160a01b1790559091506105a28461089c565b156105b8576105b583835f015486610914565b90505b604051339082905f81818185875af1925050503d805f81146105f5576040519150601f19603f3d011682016040523d82523d5f602084013e6105fa565b606091505b5050506001820154604051632142170760e11b81523360048201526001600160a01b03918216602482015260448101859052908516906342842e0e906064015f604051808303815f87803b158015610650575f80fd5b505af1158015610662573d5f803e3d5ffd5b5050505060018201548254604080516001600160a01b0393841681529287166020840152820185905260608201527fe976c214e551c990ab0c47b34f11c5f4ce9b392d012182cfe215793532cb45fb9060800160405180910390a15050505050565b6106cc610a31565b6106d55f610a8a565b565b6040805160a0810182526001600160a01b038581168083526020808401878152338587018181525f60608801818152608089018b81526001805484526002978890528b84209a518b54908b166001600160a01b0319909116178b559551958a01959095559151948801805492511515600160a01b026001600160a81b0319909316959097169490941717909455516003909401939093559251632142170760e11b81526004810191909152306024820152604481018590529091906342842e0e906064015f604051808303815f87803b1580156107b2575f80fd5b505af11580156107c4573d5f803e3d5ffd5b5050604080516001600160a01b0388168152602081018790529081018590523360608201527f6de89c8bd0ee8abf8f5308bf6d5b17cdc7e48be055644071002a26b6de8e94c29250608001905060405180910390a15060019392505050565b61082b610a31565b6001600160a01b0381166108905760405162461bcd60e51b815260206004820152602660248201527f4f776e61626c653a206e6577206f776e657220697320746865207a65726f206160448201526564647265737360d01b60648201526084016101df565b61089981610a8a565b50565b6040516301ffc9a760e01b815263152a902d60e11b60048201525f9081906001600160a01b038416906301ffc9a790602401602060405180830381865afa1580156108e9573d5f803e3d5ffd5b505050506040513d601f19601f8201168201806040525081019061090d9190610bb5565b9392505050565b60405163152a902d60e11b815260048101849052602481018390525f90819081906001600160a01b03851690632a55205a906044016040805180830381865afa158015610963573d5f803e3d5ffd5b505050506040513d601f19601f820116820180604052508101906109879190610bd4565b90925090505f6109978287610c00565b905081156109ee576040516001600160a01b0384169083905f81818185875af1925050503d805f81146109e5576040519150601f19603f3d011682016040523d82523d5f602084013e6109ea565b606091505b5050505b60408051888152602081018490527fe61af2269c9afbdb69efce2b15f2a464f8ee6237f105b3d4024f2e824a9f0af3910160405180910390a19695505050505050565b5f546001600160a01b031633146106d55760405162461bcd60e51b815260206004820181905260248201527f4f776e61626c653a2063616c6c6572206973206e6f7420746865206f776e657260448201526064016101df565b5f80546001600160a01b038381166001600160a01b0319831681178455604051919092169283917f8be0079c531659141344cd1fd0a4f28419497f9722a3daafe3b4186f6b6457e09190a35050565b5f60208284031215610ae9575f80fd5b5035919050565b6001600160a01b0381168114610899575f80fd5b5f805f60608486031215610b16575f80fd5b8335610b2181610af0565b95602085013595506040909401359392505050565b5f805f60608486031215610b48575f80fd5b833592506020840135610b5a81610af0565b929592945050506040919091013590565b5f60208284031215610b7b575f80fd5b813561090d81610af0565b5f60208284031215610b96575f80fd5b815161090d81610af0565b634e487b7160e01b5f52603260045260245ffd5b5f60208284031215610bc5575f80fd5b8151801515811461090d575f80fd5b5f8060408385031215610be5575f80fd5b8251610bf081610af0565b6020939093015192949293505050565b81810381811115610c1f57634e487b7160e01b5f52601160045260245ffd5b9291505056fea26469706673582212208f963542c633659c8ead564019c12397678925aca617af69750aa87cb930b45664736f6c63430008140033",
    "sourcePath": "/workspace/nfttickets/contracts/marketplace.sol",
    "compiler": {
        "name": "solc",
        "version": "0.8.20+commit.a1b79de6"
    },
    "functionHashes": {
        "acceptpublicoffer(uint256,address,uint256)": "6a04200a",
        "buyfromlisting(uint256)": "2dd3a73c",
        "listforsale(address,uint256,uint256)": "9aa331ba",
        "makeoffer(address,uint256,uint256)": "453ba330",
        "orderCount()": "2453ffa8",
        "owner()": "8da5cb5b",
        "renounceOwnership()": "715018a6",
        "transferOwnership(address)": "f2fde38b"
    },
    "gasEstimates": {
        "creation": {
            "codeDepositCost": "632600",
            "executionCost": "26502",
            "totalCost": "659102"
        },
        "external": {
            "acceptpublicoffer(uint256,address,uint256)": "infinite",
            "buyfromlisting(uint256)": "infinite",
            "listforsale(address,uint256,uint256)": "infinite",
            "makeoffer(address,uint256,uint256)": "73258",
            "orderCount()": "2284",
            "owner()": "2321",
            "renounceOwnership()": "infinite",
            "transferOwnership(address)": "infinite"
        },
        "internal": {
            "_checkRoyalties(address)": "infinite",
            "_deduceRoyalties(uint256,uint256,address)": "infinite"
        }
    }
}